:100000000C9426030C9443030C9443030C94430375
:100010000C9443030C9443030C9443030C94430348
:100020000C9443030C9443030C9443030C94450336
:100030000C946E030C9443030C9443030C944303FD
:100040000C9443030C9443030C9443030C94430318
:100050000C94430346433A004352433A00534E3A0A
:100060002000200028313853290028313842290047
:10007000283232290028203F2029002043524320E3
:100080004641494C200020435243204F2E4B2E2006
:10009000004E6F2053656E736F7220666F756E64CD
:1000A0000D00427573204572726F720D002043522D
:1000B00043204641494C200020435243204F2E4BC1
:1000C0002E200020545F7261773D002000533230B3
:1000D0002F3039004232302F3132004232302F314E
:1000E0003100204232302F313020004232302F3068
:1000F000390020002A20494E56414C4944202A000C
:1001000020636F6E763A20002064656369B04320F7
:100110000020666D743A200020B04320000D00538B
:10012000503A004352433A0020002E003000B043C2
:1001300000445331385832305F73746172745F6DAC
:100140006561733A2053686F7274204369726375F6
:100150006974210D00445331385832305F77726929
:1001600074655F736372617463687061643A20538D
:10017000686F72742043697263756974210D00445D
:100180005331385832305F726561645F73637261F6
:100190007463687061643A2053686F7274204369B5
:1001A0007263756974210D00445331385832305FE1
:1001B000636F70795F736372617463687061643ACE
:1001C0002053686F72742043697263756974210DDE
:1001D00000445331385832305F726563616C6C5F34
:1001E00045323A2074696D656F7574210D00445372
:1001F00031385832305F726563616C6C5F45323AFA
:100200002053686F72742043697263756974210D9D
:10021000000D0A4453313858323020312D5769725D
:10022000652D5265616465722044656D6F20627949
:10023000204D617274696E2054686F6D61730D0A90
:10024000002D2D2D2D2D2D2D2D2D2D2D2D2D2D2D0B
:100250002D2D2D2D2D2D2D2D2D2D2D2D2D2D2D2DCE
:100260002D2D2D2D2D2D2D2D2D2D2D2D00204453BB
:1002700031385832302053656E736F7228732920DD
:10028000617661696C61626C653A0D0A00232069D0
:100290006E20427573203A00203A20000D0A005368
:1002A000656E736F72232000206973206120004403
:1002B0005331385332302F445331383230004453A5
:1002C00031383232004453313842323000207768BE
:1002D0006963682069732000706172617369746575
:1002E0000065787465726E616C6C790020706F7750
:1002F000657265640D0A000D0A54686572652069AF
:1003000073206F6E6C79206F6E652073656E736FEE
:1003100072202D3E2044656D6F206F66202244536D
:1003200031385832305F726561645F646563696358
:10033000656C736975735F73696E676C65223A0DDE
:100340000A000D0A000D0A436F6E766572745F54E1
:1003500020616E6420526561642053656E736F7214
:100360002062792053656E736F72202872657665FE
:10037000727365206F72646572290D0A0053656E91
:10038000736F72232000203D2000435243204572AA
:10039000726F7220286C6F737420636F6E6E65636A
:1003A00074696F6E3F29000D0A00537461727420E6
:1003B0006D6561732E206661696C656420287368C1
:1003C0006F727420636972637569743F29000D0A46
:1003D000436F6E766572745F5420666F7220616C35
:1003E0006C2053656E736F727320616E642052656A
:1003F00061642053656E736F722062792053656E5D
:10040000736F720D0A0053656E736F7223200020A4
:100410003D2000435243204572726F7220286C6F5A
:10042000737420636F6E6E656374696F6E3F29002D
:100430000D0A0053656E736F72232000203D20006B
:10044000435243204572726F7220286C6F73742080
:10045000636F6E6E656374696F6E3F29000D0A00ED
:100460005374617274206D6561732E206661696CCE
:100470006564202873686F7274206369726375699C
:10048000743F29000D0A566572626F7365206F759F
:10049000747075740D0A002A2A2A2070726F626CBB
:1004A000656D73202D2072657363616E6E696E6772
:1004B00020627573202E2E2E00204453313858327E
:1004C000302053656E736F722873292061766169DD
:1004D0006C61626C650D0A000D0A44533138783244
:1004E0003020454550524F4D20737570706F7274B7
:1004F000207465737420666F72206669727374204D
:1005000073656E736F720D0A0054482B3120616E53
:100510006420544C2B31207772697474656E20749A
:100520006F20736372617463687061640D0A007395
:1005300063726174636870616420636F706965647D
:1005400020746F2044533138783230204545505262
:100550004F4D0D0A00544820616E6420544C2069B0
:100560006E20736372617463687061642073657474
:1005700020746F20300D0A00445331387832302017
:10058000454550524F4D20636F706965642062612C
:10059000636B20746F20736372617463687061644D
:1005A0000D0A00544820616E6420544C2076657218
:1005B00069666965640D0A00766572696679206608
:1005C00061696C65640D0A0054482F544C20696EB3
:1005D0002073637261746368706164206F66207356
:1005E000656E736F722031206E6F77203A20002085
:1005F0002F20000D0A002064656369B0432C2000A1
:1006000020B0430020B043652D342C200020B0439F
:10061000000D0A5363616E6E696E67204275732028
:10062000666F7220445331385832300D0A004E6FD5
:100630002053656E736F7220666F756E640D0A00CD
:10064000427573204572726F720D0A0011241FBE2D
:10065000CFE5D4E0DEBFCDBF10E0A0E6B0E0E8EE2D
:10066000FCE102C005900D92A236B107D9F710E067
:10067000A2E6B0E001C01D92AF3CB107E1F70E94D5
:10068000400A0C94720E0C9400001F920F920FB649
:100690000F9211242F938F939F93EF93FF938BB11E
:1006A0009CB18871E0916400EF5FEF71209163006D
:1006B000E21739F0E0936400F0E0E959FF4F9083CE
:1006C00001C082E080936200FF91EF919F918F9132
:1006D0002F910F900FBE0F901F9018951F920F92A1
:1006E0000FB60F9211248F939F93EF93FF939091E6
:1006F000660080916500981761F0E0916500EF5FFA
:10070000EF71E0936500F0E0E957FF4F80818CB90D
:1007100001C05598FF91EF919F918F910F900FBE5F
:100720000F901F901895109266001092650010921D
:1007300064001092630097FF03C022E02BB99F77FB
:1007400090BD89B988E98AB986E880BD08959091FD
:1007500066009F5F9F71209165009217E1F3E92F7A
:10076000F0E0E957FF4F808390936600559A089513
:10077000CF93DF93EC0102C00E94A70389918111FE
:10078000FBCFDF91CF910895CF93DF93EC0102C0AF
:100790000E94A703FE01219684918111F9CFDF9178
:1007A000CF910895FC01680F791F80E048E10FC0E8
:1007B000219198E0322F3827532F517030FD842734
:1007C0008695513009F480682695915099F7E6177F
:1007D000F70771F70895FB01318120E09081292B03
:1007E000803171F4A9014E7F63E0440F551F6A9573
:1007F000E1F796812CE030E0291B3109240F351FE9
:1008000037FF05C0319521953109A1E001C0A0E075
:10081000883211F0823269F484818076803231F03E
:10082000803431F0811105C0287F03C02C7F01C0C6
:100830002E7FC90144E0969587954A95E1F76AE0D5
:10084000689FA001699F500D11242F70332760E825
:1008500072E0269FC001279F900D369F900D1124B6
:10086000A11101C09E5F9C01232F33272695269559
:10087000240F351FAA2319F0319521953109C9019B
:100880008A5D9D4F8930974010F020ED37E0C90117
:1008900008950F931F93CF93FB01518140E0908106
:1008A000492B803171F49A012E7FA3E0220F331F70
:1008B000AA95E1F796814CE050E0491B5109420F9F
:1008C000531F57FF05C0519541955109C1E001C023
:1008D000C0E0883211F0823269F4848180768032FF
:1008E00031F0803431F0811105C0487F03C04C7F66
:1008F00001C04E7F9A0174E0369527957A95E1F70D
:10090000A0E1B7E20E949B0D8B019C014F7055271F
:1009100061E772E0469FC001479F900D569F900D82
:100920001124080F191F211D311DCC2339F03095DA
:100930002095109501951F4F2F4F3F4FB801C901CA
:10094000CF911F910F910895FF920F931F93CF9313
:10095000DF93162F072FF42EBC018EEB0E944B0D58
:10096000C12FD02F03C00E94FC0C89938C2F811BB8
:100970008F15C8F369E070E0812F902F0E94D20399
:10098000882311F083E001C080E0DF91CF911F91B7
:100990000F91FF900895AF92BF92CF92DF92EF92A6
:1009A000FF920F931F93CF93DF938C017B016C0118
:1009B000C0E0D0E05B0181E0A81AB10834C0209704
:1009C00019F484E590E00CC0CA15DB0521F488E534
:1009D00090E00E94C403C130D10521F48DE590E080
:1009E0000E94C403F60181916F010E94910D82E67D
:1009F00090E00E94C4032097A9F4F801808180311F
:100A000019F484E690E00CC0883219F48AE690E08C
:100A100007C0823219F480E790E002C085E790E0D9
:100A20000E94C4032196CE15DF0549F668E070E008
:100A3000C8010E94D203882319F08BE790E002C01E
:100A400086E890E0DF91CF911F910F91FF90EF909A
:100A5000DF90CF90BF90AF900C94C4030F931F937F
:100A6000CF93DF93EC018B01B80188810E94FF0CCA
:100A7000888381508D3F48F4F8018081883239F0B5
:100A8000803129F0823281F702C081E001C080E02C
:100A9000DF91CF911F910F910895CF93DF93EC01D8
:100AA0000E94840CBE0184EB0E944B0D81E00E94E9
:100AB000A10CC82F0E94840C81E0C11101C080E00C
:100AC000DF91CF9108951F93CF93DF9300D0CDB7DF
:100AD000DEB7182F69837A830E94840C0E94520C1F
:100AE00069817A81882351F084E4113019F00E94E1
:100AF0004E0D02C00E944B0D80E005C081E391E0E5
:100B00000E94C40382E00F900F90DF91CF911F915C
:100B10000895BF92CF92DF92EF92FF920F931F93AF
:100B2000CF93DF93CDB7DEB727970FB6F894DEBF2C
:100B30000FBECDBF7B01473008F45BC089312CEF7D
:100B400092070CF456C08031E7E29E070CF051C0CA
:100B500097FF06C0919581959109BB24B39401C07C
:100B6000B12CCC24C394D12CCC0EDD1E86016AE0BE
:100B700070E00E94A70D805DF80181938F012E2FF8
:100B80002C19862F972F181619068CF3822F992768
:100B900087FD9095E1E0F0E0EC0FFD1FE80FF91FF5
:100BA000BB2029F03DE2308390E03EE203C03BE20F
:100BB000FACF982FF701E90FF11DA1E0B0E0AC0FDB
:100BC000BD1FA20FB11D27FDBA958C918083892F7F
:100BD0008F5F215031F4F701E80FF11D30838F5FF3
:100BE000E8CF27FFE6CFF701E80FF11D108280E084
:100BF00001C081E027960FB6F894DEBF0FBECDBFCF
:100C0000DF91CF911F910F91FF90EF90DF90CF90E8
:100C1000BF9008952F923F925F926F927F928F9232
:100C20009F92AF92BF92CF92DF92EF92FF920F937B
:100C30001F93CF93DF93CDB7DEB7AC970FB6F89481
:100C4000DEBF0FBECDBF55245A947E0185E2E80E6B
:100C5000F11C61E7262E62E0362E8E010F5F1F4FDA
:100C6000B701852D0E94FF0C582EEFEF8E1306C0A2
:100C700081E990E00E94C4038FEF40C1FEEF8F1323
:100C800006C082EA90E00E94C4038EEF37C168E09C
:100C900070E0C7010E94CB048DA1883229F0803119
:100CA00019F0823209F023C18DE00E94A7038EEB78
:100CB0000E94A50C5CE1652E712C6C0E7D1E6301FB
:100CC0000E94FC0CF30181933F01EE15FF05C1F773
:100CD0008FE191E00E94C403612C712C08C0F8E000
:100CE0006F16710421F483E291E00E94C403F601BF
:100CF00081916F010E94910D88E291E00E94C403EE
:100D0000FFEF6F1A7F0A89E06816710441F769E006
:100D100070E0CE014C960E94D203882319F08DEA30
:100D200090E002C088EB90E00E94C4038DE00E9436
:100D3000A7038C8DBD8CA12C6501C82A83EC90E0A3
:100D40000E94C4038D2D0E94910D8C2D0E94910D47
:100D50008BEC90E00E94C4038DA1803119F48DECDE
:100D600090E018C0883211F08232B1F488A1982F37
:100D70009076903619F484ED90E00CC086FF03C0A5
:100D80008BED90E007C085FF03C082EE90E002C0CB
:100D90008BEE90E00E94C40382EF90E00E94C403B7
:100DA0002DA18C8D9D8C812C6401C82A203179F471
:100DB000C6018E7F33E0880F991F3A95E1F73AA17B
:100DC0004CE0C42ED12CC31AD108C80ED91ED7FEB0
:100DD00005C0D194C194D10891E001C090E02832BF
:100DE00011F0223289F488A1282F2076203661F074
:100DF00086FF03C0E894C0F807C085FF03C0ECEF8E
:100E0000CE2202C0F8EFCF22360184E076946794B8
:100E10008A95E1F78FE0C822DD24992311F08DE255
:100E200001C08BE20E94A703C30199270E94510DC4
:100E30008AE291E00E94C4034AE050E0B801C29CFB
:100E4000C001C39C900DD29C900D11240E940D0EE8
:100E5000C12CD12C07C08CE291E00E94C403EFEFBB
:100E6000CE1ADE0AF80101900020E9F73197E01B65
:100E7000F10B84E090E08E1B9F0BC816D90658F347
:100E8000C8010E94B8038EE291E00E94C403BE0133
:100E9000645E7F4F8DA10E94EB036C01803DF7E003
:100EA0009F0719F484EF90E01CC080E091E00E945D
:100EB000C403C6010E94510D88E091E00E94C40362
:100EC0004AE0BE016E5E7F4FC6010E94890581E146
:100ED00091E00E94C403CE0142960E94B80388E1CB
:100EE00091E00E94C40380E690E00E94B803511094
:100EF000B7CE8DE191E00E94C40380E0AC960FB6BE
:100F0000F894DEBF0FBECDBFDF91CF911F910F913F
:100F1000FF90EF90DF90CF90BF90AF909F908F9019
:100F20007F906F905F903F902F900895DF92EF92A7
:100F3000FF920F931F93CF93DF93CDB7DEB729971F
:100F40000FB6F894DEBF0FBECDBF8C017B010E94AF
:100F5000840C49E0BE016F5F7F4FC8010E94A4046A
:100F6000D82E81110AC0BE016F5F7F4FF8018081CA
:100F70000E94EB03F701918380838D2D29960FB694
:100F8000F894DEBF0FBECDBFDF91CF911F910F91BF
:100F9000FF90EF90DF900895EF92FF920F931F93D1
:100FA000CF93DF93CDB7DEB729970FB6F894DEBFA6
:100FB0000FBECDBFE82E8B0149E0BE016F5F7F4FB2
:100FC00080E090E00E94A404F82E811109C0BE01C7
:100FD0006F5F7F4F8E2D0E94EB03F801918380831A
:100FE0008F2D29960FB6F894DEBF0FBECDBFDF91CF
:100FF000CF911F910F91FF90EF900895DF92EF92A4
:10100000FF920F931F93CF93DF93CDB7DEB729974E
:101010000FB6F894DEBF0FBECDBF8C017B010E94DE
:10102000840C49E0BE016F5F7F4FC8010E94A40499
:10103000D82E81110CC0BE016F5F7F4FF8018081F7
:101040000E944904F70160837183828393838D2D0D
:1010500029960FB6F894DEBF0FBECDBFDF91CF91BA
:101060001F910F91FF90EF90DF900895AF92BF9284
:10107000CF92DF92EF92FF920F931F93CF93DF9364
:10108000CDB7DEB76A970FB6F894DEBF0FBECDBFFF
:101090007A012A3008F48EC0613C2DEB720720EFF4
:1010A00082072FEF92070CF485C06038E6E97E07CF
:1010B000E8E98E0791050CF07DC097FF0AC0909576
:1010C0008095709561957F4F8F4F9F4FDD24D3940E
:1010D00001C0D12C8E010F5F1F4FC02EE8E0AE2E55
:1010E000B02EBC182AE030E040E050E00E94BB0D7A
:1010F0002B8B3C8B4D8B5E8B6F8B788F898F9A8F70
:10110000FE017396DE011B968A2D01900D928A9541
:10111000E1F78F85805DF80181938F012E2F2C19C7
:101120006B857C858D859E85161617061806190613
:10113000BCF2822F8250823048F4FE01E20FF11D92
:1011400027FDFA9580E381832B2D2E5F822F99272F
:1011500087FD9095E1E0F0E0EC0FFD1FE80FF91F2F
:10116000DD2029F03DE2308390E03EE203C03BE227
:10117000FACF982FF701E90FF11DA1E0B0E0AC0F15
:10118000BD1FA20FB11D27FDBA958C918083892FB9
:101190008F5F2150233031F4F701E80FF11D3083C8
:1011A0008F5FE7CF27FFE5CFF701E80FF11D108232
:1011B00080E001C081E06A960FB6F894DEBF0FBEF2
:1011C000CDBFDF91CF911F910F91FF90EF90DF90F6
:1011D000CF90BF90AF900895FF920F931F93CF933E
:1011E000DF93EC01162FF42E022F0E94840C0E9434
:1011F000520C882399F0BE018EE40E944B0D812F82
:101200000E94A50C8F2D0E94A50C9881983211F098
:10121000923251F4802F0E94A50C06C085E591E022
:101220000E94C40381E001C080E0DF91CF911F9153
:101230000F91FF9008950F931F93CF93DF9300D0EA
:101240001F92CDB7DEB78C014B8369837A830E94EE
:10125000840C0E94520C4B8169817A81882351F061
:10126000C8010F900F900F90DF91CF911F910F91B8
:101270000C94A4048FE791E00E94C40381E00F90D6
:101280000F900F90DF91CF911F910F9108951F93B1
:10129000CF93DF9300D0CDB7DEB7182F69837A8361
:1012A0000E94840C0E94520C69817A81882399F0F3
:1012B00088E4113019F00E944E0D02C00E944B0DBF
:1012C0008FEF97E40197F1F700C00000113049F06B
:1012D0000E94820C06C088EA91E00E94C40382E06A
:1012E00001C080E00F900F90DF91CF911F91089582
:1012F000CF93DF93EC010E94840C0E94520C882350
:10130000C1F0BE0188EB0E944B0DCEEF01C0C92F8A
:10131000CF3F21F414C0C11112C008C081E00E9467
:10132000A10C9C2F9150882391F3F5CF81ED91E092
:1013300002C08EEE91E00E94C40381E001C080E013
:10134000DF91CF910895CF93DF93EC0149E0BC0189
:1013500087EA90E00E941B0988EC95E00E94C40394
:101360008A8190E00E94510D8FEE95E00E94C403A7
:101370008B8190E00E94510D83EF95E0DF91CF913A
:101380000C94C4030F931F93CF93DF93CDB7DEB7B5
:101390002A970FB6F894DEBF0FBECDBF8C010E9416
:1013A000510D86EF95E00E94C4034AE0BE016F5FD5
:1013B0007F4FC8010E948905CE0101960E94B803A3
:1013C00080E096E00E94C4032A960FB6F894DEBF30
:1013D0000FBECDBFDF91CF911F910F910895FF9266
:1013E0000F931F93CF93DF93CDB7DEB729970FB637
:1013F000F894DEBF0FBECDBF81E196E00E94C4032A
:101400000E94840C8FEF898707EA10E0F12C25C039
:10141000BE016F5F7F4FCE0109960E942E05898520
:101420008F3F19F48EE296E004C08E3F29F480E4E9
:1014300096E00E94C40317C0FE01319620E030E020
:101440008191D801A20FB31F8C932F5F3F4F28309B
:101450003105B1F7F394085F1F4F8985882319F090
:1014600085E0F812D5CF8F2D29960FB6F894DEBF00
:101470000FBECDBFDF91CF911F910F91FF900895C7
:10148000CF93DF93CDB7DEB760970FB6F894DEBF8A
:101490000FBECDBF87E190E00E949303789481E175
:1014A00092E00E94C40381E492E00E94C4030E947F
:1014B000EF09B82E90E00E94510D8DE692E00E9457
:1014C000C40300E010E01EC08DE892E00E94C40357
:1014D00078010F5F1F4FC8010E94510D88E992E00B
:1014E0000E94C403C70163E0880F991F6A95E1F762
:1014F00068E070E089559F4F0E94CB048CE992E030
:101500000E94C4030B1500F307EA10E0E12CF12C54
:101510003CC08FE992E00E94C40367012FEFE21AFA
:10152000F20AC7010E94510D88EA92E00E94C403AA
:10153000F8018081803119F48FEA92E007C082328D
:1015400019F48EEB92E002C085EC92E00E94C40395
:101550008DEC92E00E94C403C60153E0880F991FEE
:101560005A95E1F789559F4F0E944D05811103C09F
:1015700088ED92E002C081EE92E00E94C4038CEEFE
:1015800092E00E94C403085F1F4FEB1410F2BB20CF
:1015900009F479C088ED94E00E94C403CE0101965D
:1015A0000E94A3090B811C811F5F0F5F20E6412F62
:1015B000602F87EA90E00E94EC0889E095E00E94A5
:1015C000C403CE0101960E94A30967EA70E080E09F
:1015D0000E9447098FE295E00E94C40320E640E0A4
:1015E00060E087EA90E00E94EC0885E595E00E94C3
:1015F000C403CE0101960E94A30987EA90E00E94ED
:10160000780988E795E00E94C40349E0BE016F5F56
:101610007F4F87EA90E00E941B098B81081306C068
:101620008C81181303C083EA95E002C088EB95E033
:101630000E94C403CE0101960E94A309F1E0BF12EB
:1016400022C087EF92E00E94C4031091A70060E0DF
:1016500070E080E00E9463052FEF8FED90E1215054
:1016600080409040E1F700C00000BE01615F7F4F05
:10167000812F0E94CC078F8598890E94C20982E43D
:1016800093E00E94C403AA24A394B110A12C85E482
:1016900093E00E94C403DB2C41C0ED2CF12C8701A8
:1016A00043E0000F111F4A95E1F701561F4FB801A3
:1016B00080E00E94630581112BC0EFEFFFED20E178
:1016C000E150F0402040E1F700C000008DE793E0DA
:1016D0000E94C403C7010E94510D86E893E00E9456
:1016E000C403BE01615F7F4FC8010E94960781114C
:1016F00005C08F8598890E94C20905C08AE893E0D9
:101700000E94C403A39487EA93E00E94C40305C027
:101710008AEA93E00E94C403A394DA94D110BDCF67
:101720008EEC93E00E94C40360E070E080E00E94D1
:101730006305811184C08FEF9FEDE0E181509040FF
:10174000E040E1F700C00000E12CF12C2CC086E065
:1017500094E00E94C4038701FFEFEF1AFF0AC7015C
:101760000E94510D8FE094E00E94C403C80133E051
:10177000880F991F3A95E1F7BE01615F7F4F895548
:101780009F4F0E949607811105C08F8598890E94FE
:10179000C20905C083E194E00E94C403A39480E3DE
:1017A00094E00E94C403EB1490F200E010E043C008
:1017B00083E394E00E94C40378010F5F1F4FC801C8
:1017C0000E94510D8CE394E00E94C403C70123E002
:1017D000880F991F2A95E1F7BE01655F7F4F8955F4
:1017E0009F4F0E94FE0781111DC0CB84DC84ED84D5
:1017F000FE84C701B6010E946D0D84E096E00E9450
:10180000C4032AE0AE014F5F5F4FC701B6010E94DB
:101810003608CE0101960E94B8038DE096E00E9442
:10182000C40305C080E494E00E94C403A3948DE542
:1018300094E00E94C4030B1508F4BACF05C080E6FB
:1018400094E00E94C403A39484E894E00E94C4033B
:1018500060E070E080E00E9463052FEF8FED90E183
:10186000215080409040E1F700C000000E940A062D
:10187000AA2071F087E994E00E94C4030E94EF0956
:10188000B82E90E00E94510D89EB94E00E94C403B1
:10189000EFEFFFE723E4E150F0402040E1F700C024
:1018A0000000F1CE83B381700895A89AA09A08959C
:1018B0001F93CF93DF931F92CDB7DEB71FB7F89476
:1018C000A898A09A95E09A95F1F7882311F0A0982E
:1018D000A89AE0E2EA95F1F7989B80E0FAE6FA959B
:1018E000F1F7A89AA098662321F089830E94550CED
:1018F00089811FBF9AE49A95F1F70F90DF91CF91FC
:101900001F910895A0980895A898A09A84E793E05D
:101910000197F1F700C09FB7F894A098A89AEDE955
:10192000EA95F1F7000083B39FBFEEEFF2E0319745
:10193000F1F700C00000989B02C08170089581E01B
:10194000089560E081700C94580CCF93DF93C82FFA
:10195000D8E08C2F81700E94A10CC6958111C068BF
:10196000D150B9F78C2FDF91CF910895CF93DF93AA
:10197000C82FD8E08C2F8170D13011F060E001C009
:1019800061E00E94580CC6958111C068D15091F752
:101990008C2FDF91CF910895EF92FF920F931F93B9
:1019A000CF93DF93F82EEB01E42E0E94840C209756
:1019B00069F085E50E94A50C8E01085F1F4F899193
:1019C0000E94A50CC017D107D1F703C08CEC0E9470
:1019D000A50C8F2DEE2041F0DF91CF911F910F913B
:1019E000FF90EF900C94B60CDF91CF911F910F9167
:1019F000FF90EF900C94A50C8FEF0C94A50CDF9248
:101A0000EF92FF920F931F93CF93DF93E82EEB019A
:101A10000E94840C811131C080EF0E94A50CF12C32
:101A200010E498EFD92ED10E81E00E94A10C082F6E
:101A300081E00E94A10C882319F0002369F020C0E6
:101A400001110AC01E1530F0888180FF05C0E11227
:101A500001C002C0F12E01E0802F0E94A10C9881EC
:101A60009695011101C001C09068988311501D1115
:101A7000DBCF21961111D5CF05C0FF24FA9402C007
:101A80008EEFF82E8F2DDF91CF911F910F91FF9048
:101A9000EF90DF90089540E00C94CC0C41E00C9462
:101AA000CC0CCF93DF93CDB7DEB72A970FB6F8945F
:101AB000DEBF0FBECDBF4AE050E0BE016F5F7F4F7B
:101AC0000E940D0E0E94B8032A960FB6F894DEBF4E
:101AD0000FBECDBFDF91CF910895CF93DF93CDB7E8
:101AE000DEB72F970FB6F894DEBF0FBECDBF2AE04A
:101AF00030E0AE014F5F5F4F0E942E0E0E94B80390
:101B00002F960FB6F894DEBF0FBECDBFDF91CF91F9
:101B100008958F708A3010F0895C01C0805D0C944C
:101B2000A703CF93C82F82958F700E94890D8C2FA9
:101B3000CF910C94890DA29FB001B39FC001A39FC8
:101B400001D0B29F700D811D1124911D089597FB46
:101B5000072E16F4009407D077FD09D00E94D70D08
:101B600007FC05D03EF4909581959F4F08957095A0
:101B700061957F4F0895052E97FB16F4009407D0CA
:101B800057FD0DD00E94EB0D07FC09D07EF4909517
:101B90008095709561957F4F8F4F9F4F0895509519
:101BA0004095309521953F4F4F4F5F4F0895AA1BA9
:101BB000BB1B51E107C0AA1FBB1FA617B70710F038
:101BC000A61BB70B881F991F5A95A9F7809590956A
:101BD000BC01CD010895A1E21A2EAA1BBB1BFD0179
:101BE0000DC0AA1FBB1FEE1FFF1FA217B307E407FC
:101BF000F50720F0A21BB30BE40BF50B661F771F54
:101C0000881F991F1A9469F7609570958095909533
:101C10009B01AC01BD01CF010895FB019F01E89438
:101C20004230C4F04532B4F44A3029F497FB1EF434
:101C3000909581959F4F642F77270E94D70D805DE7
:101C40008A330CF0895D8193CB010097A1F716F4DC
:101C50005DE251931082C9010C94620EFA01CF9398
:101C6000FF93EF93223044F1253234F5C22FE894EC
:101C7000CA3049F497FB3EF4909580957095619534
:101C80007F4F8F4F9F4F2C2F332744275527FF938C
:101C9000EF930E94EB0DEF91FF91605D6A330CF0C2
:101CA000695D6193B901CA01605070408040904005
:101CB00051F716F4CDE2C19310828F919F91CF918D
:101CC0000C94620EDC01FC01672F71917723E1F720
:101CD000329704C07C916D9370836291AE17BF07F9
:081CE000C8F30895F894FFCF4A
:021CE8000D00ED
:00000001FF
